:100000000C9434000C9446000C9446000C9446006A
:100010000C9448000C9446000C9446000C94460046
:100020000C9446000C9446000C9446000C94460038
:100030000C9446000C9446000C9446000C94460028
:100040000C9446000C9446000C9446000C94460018
:100050000C9446000C9446000C9446000C94460008
:100060000C9446000C94460011241FBECFEFD8E03C
:10007000DEBFCDBF21E0A0E0B1E001C01D92A13004
:10008000B207E1F70E944E000C9469000C94000046
:100090008F9381E0809300018F91189582E0809387
:1000A000680080E280936C007894579A80910001F8
:1000B0008115E1F32FEF86E791E0215080409040D9
:1000C000E1F700C000008BB180588BB9109200019D
:0600D000EDCFF894FFCF14
:00000001FF
