:100000000C942A000C9434000C9434000C9440009E
:100010000C9434000C9434000C9434000C94340090
:100020000C9434000C9434000C9434000C94340080
:100030000C9434000C9434000C9434000C94340070
:100040000C9434000C9434000C9434000C94340060
:100050000C94340011241FBECFE5D8E0DEBFCDBF25
:100060000E9436000C944D000C94000084B780640C
:1000700084BF8BB780628BBF7894D09ABA98FFCF39
:100080008F938FB78F939F938BB391E089278BBB0F
:0E0090009F918F918FBF8F911895F894FFCF9D
:00000001FF
