:100000000C942A000C9434000C9434000C943400AA
:100010000C9434000C9434000C9434000C94340090
:100020000C9434000C9434000C9434000C94340080
:100030000C9434000C9434000C9434000C94340070
:100040000C9434000C9434000C9434000C94340060
:100050000C94340011241FBECFE5D8E0DEBFCDBF25
:100060000E9436000C9456000C9400008FEF8ABB5F
:1000700081E08BBB0FC08BB3823060F087EA91E6E2
:100080000197F1F700C000008BB386958BBB8BB353
:100090008230A0F7DF99EFCF87EA91E60197F1F779
:1000A00000C000008BB3880F8BBBF4CFF894FFCF58
:00000001FF
