:100000000C9434000C943E000C943E000C943E0082
:100010000C943E000C943E000C943E000C943E0068
:100020000C943E000C943E000C943E000C943E0058
:100030000C943E000C943E000C943E000C943E0048
:100040000C9440000C943E000C943E000C943E0036
:100050000C943E000C943E000C943E000C943E0028
:100060000C943E000C943E0011241FBECFEFD8E04C
:10007000DEBFCDBF0E944A000C945A000C940000D1
:100080008F938FB78F938BB180588BB98F918FBF20
:100090008F91189514BC84E085BD80916E008160BD
:1000A00080936E0078948AB1806C8AB952985A9A7B
:0800B0005E9AFECFF894FFCF29
:00000001FF
